{
  "contractName": "Aggregator2",
  "abi": [
    {
      "anonymous": false,
      "inputs": [
        {
          "indexed": true,
          "internalType": "address",
          "name": "sender",
          "type": "address"
        },
        {
          "indexed": true,
          "internalType": "address",
          "name": "srcToken",
          "type": "address"
        },
        {
          "indexed": true,
          "internalType": "address",
          "name": "dstToken",
          "type": "address"
        },
        {
          "indexed": false,
          "internalType": "address",
          "name": "dstReceiver",
          "type": "address"
        },
        {
          "indexed": false,
          "internalType": "uint256",
          "name": "amount",
          "type": "uint256"
        },
        {
          "indexed": false,
          "internalType": "uint256",
          "name": "spentAmount",
          "type": "uint256"
        },
        {
          "indexed": false,
          "internalType": "uint256",
          "name": "returnAmount",
          "type": "uint256"
        },
        {
          "indexed": false,
          "internalType": "uint256",
          "name": "minReturnAmount",
          "type": "uint256"
        },
        {
          "indexed": false,
          "internalType": "address",
          "name": "referrer",
          "type": "address"
        }
      ],
      "name": "Swapped",
      "type": "event"
    },
    {
      "stateMutability": "payable",
      "type": "receive"
    },
    {
      "inputs": [
        {
          "components": [
            {
              "internalType": "address",
              "name": "tokenIn",
              "type": "address"
            },
            {
              "internalType": "address",
              "name": "tokenOut",
              "type": "address"
            },
            {
              "internalType": "uint256",
              "name": "amountIn",
              "type": "uint256"
            },
            {
              "internalType": "uint256",
              "name": "amountOutMin",
              "type": "uint256"
            },
            {
              "internalType": "uint256",
              "name": "deadline",
              "type": "uint256"
            }
          ],
          "internalType": "struct Order",
          "name": "order",
          "type": "tuple"
        },
        {
          "components": [
            {
              "internalType": "uint256",
              "name": "amount",
              "type": "uint256"
            },
            {
              "internalType": "address[][]",
              "name": "steps",
              "type": "address[][]"
            }
          ],
          "internalType": "struct Route[]",
          "name": "routes",
          "type": "tuple[]"
        },
        {
          "internalType": "address payable",
          "name": "recipient",
          "type": "address"
        },
        {
          "internalType": "address",
          "name": "referrer",
          "type": "address"
        }
      ],
      "name": "aggregate",
      "outputs": [
        {
          "internalType": "uint256",
          "name": "amountOut",
          "type": "uint256"
        },
        {
          "internalType": "uint256",
          "name": "gasLeft",
          "type": "uint256"
        }
      ],
      "stateMutability": "payable",
      "type": "function"
    }
  ],
  "bytecode": "0x608060405234801561001057600080fd5b506117da806100206000396000f3fe6080604052600436106100225760003560e01c8063e96923211461002e57600080fd5b3661002957005b600080fd5b61004161003c3660046112c6565b61005a565b6040805192835260208301919091520160405180910390f35b6000806100766100706040890160208a01611377565b8561087c565b915073eeeeeeeeeeeeeeeeeeeeeeeeeeeeeeeeeeeeeeee61009a6020890189611377565b73ffffffffffffffffffffffffffffffffffffffff16036101c3573487604001351461014d576040517f08c379a000000000000000000000000000000000000000000000000000000000815260206004820152602160248201527f41676772656761746f723a20616d6f756e74496e20213d206d73672e76616c7560448201527f650000000000000000000000000000000000000000000000000000000000000060648201526084015b60405180910390fd5b73bb4cdb9cbd36b01bd1cbaebf2de08d9173bc095c73ffffffffffffffffffffffffffffffffffffffff1663d0e30db0346040518263ffffffff1660e01b81526004016000604051808303818588803b1580156101a957600080fd5b505af11580156101bd573d6000803e3d6000fd5b50505050505b6000805b8681101561048b5773eeeeeeeeeeeeeeeeeeeeeeeeeeeeeeeeeeeeeeee6101f160208b018b611377565b73ffffffffffffffffffffffffffffffffffffffff16036102ce576102c973bb4cdb9cbd36b01bd1cbaebf2de08d9173bc095c89898481811061023657610236611394565b905060200281019061024891906113c3565b610256906020810190611401565b600081811061026757610267611394565b90506020028101906102799190611401565b600281811061028a5761028a611394565b905060200201602081019061029f9190611377565b8a8a858181106102b1576102b1611394565b90506020028101906102c391906113c3565b35610964565b610384565b6103846102de60208b018b611377565b338a8a858181106102f1576102f1611394565b905060200281019061030391906113c3565b610311906020810190611401565b600081811061032257610322611394565b90506020028101906103349190611401565b600281811061034557610345611394565b905060200201602081019061035a9190611377565b8b8b8681811061036c5761036c611394565b905060200281019061037e91906113c3565b35610afa565b60005b88888381811061039957610399611394565b90506020028101906103ab91906113c3565b6103b9906020810190611401565b9050811015610458576104508989848181106103d7576103d7611394565b90506020028101906103e991906113c3565b6103f7906020810190611401565b8381811061040757610407611394565b90506020028101906104199190611401565b80806020026020016040519081016040528093929190818152602001838360200280828437600092019190915250610c9992505050565b600101610387565b5087878281811061046b5761046b611394565b905060200281019061047d91906113c3565b3591909101906001016101c7565b508760400135811461051f576040517f08c379a000000000000000000000000000000000000000000000000000000000815260206004820152602360248201527f41676772656761746f723a207370656e74416d6f756e7420213d20616d6f756e60448201527f74496e00000000000000000000000000000000000000000000000000000000006064820152608401610144565b73eeeeeeeeeeeeeeeeeeeeeeeeeeeeeeeeeeeeeeee61054460408a0160208b01611377565b73ffffffffffffffffffffffffffffffffffffffff160361067b576040517f70a0823100000000000000000000000000000000000000000000000000000000815230600482015260009073bb4cdb9cbd36b01bd1cbaebf2de08d9173bc095c906370a0823190602401602060405180830381865afa1580156105ca573d6000803e3d6000fd5b505050506040513d601f19601f820116820180604052508101906105ee9190611470565b6040517f2e1a7d4d0000000000000000000000000000000000000000000000000000000081526004810182905290915073bb4cdb9cbd36b01bd1cbaebf2de08d9173bc095c90632e1a7d4d90602401600060405180830381600087803b15801561065757600080fd5b505af115801561066b573d6000803e3d6000fd5b505050506106798647611182565b505b600061069661069060408b0160208c01611377565b8761087c565b905083811015610728576040517f08c379a000000000000000000000000000000000000000000000000000000000815260206004820152602260248201527f41676772656761746f723a204e454741544956455f4f55545055545f414d4f5560448201527f4e540000000000000000000000000000000000000000000000000000000000006064820152608401610144565b9283039260608901358410156107c0576040517f08c379a000000000000000000000000000000000000000000000000000000000815260206004820152602660248201527f41676772656761746f723a20494e53554646494349454e545f4f55545055545f60448201527f414d4f554e5400000000000000000000000000000000000000000000000000006064820152608401610144565b506107d16040890160208a01611377565b73ffffffffffffffffffffffffffffffffffffffff166107f460208a018a611377565b6040805173ffffffffffffffffffffffffffffffffffffffff8981168252828d0135602083015291810185905260608181018890528c0135608082015287821660a082015291169033907fbd99c6719f088aa0abd9e7b7a4a635d1f931601e9f304b538dc42be25d8c65c69060c00160405180910390a4825a92509250509550959350505050565b600073ffffffffffffffffffffffffffffffffffffffff831673eeeeeeeeeeeeeeeeeeeeeeeeeeeeeeeeeeeeeeee14610944576040517f70a0823100000000000000000000000000000000000000000000000000000000815273ffffffffffffffffffffffffffffffffffffffff83811660048301528416906370a0823190602401602060405180830381865afa15801561091b573d6000803e3d6000fd5b505050506040513d601f19601f8201168201806040525081019061093f9190611470565b61095d565b8173ffffffffffffffffffffffffffffffffffffffff16315b9392505050565b6040805173ffffffffffffffffffffffffffffffffffffffff8481166024830152604480830185905283518084039091018152606490920183526020820180517bffffffffffffffffffffffffffffffffffffffffffffffffffffffff167fa9059cbb0000000000000000000000000000000000000000000000000000000017905291516000928392908716916109fb91906114b9565b6000604051808303816000865af19150503d8060008114610a38576040519150601f19603f3d011682016040523d82523d6000602084013e610a3d565b606091505b5091509150818015610a67575080511580610a67575080806020019051810190610a6791906114cb565b610af3576040517f08c379a000000000000000000000000000000000000000000000000000000000815260206004820152602d60248201527f5472616e7366657248656c7065723a3a736166655472616e736665723a20747260448201527f616e73666572206661696c6564000000000000000000000000000000000000006064820152608401610144565b5050505050565b6040805173ffffffffffffffffffffffffffffffffffffffff85811660248301528481166044830152606480830185905283518084039091018152608490920183526020820180517bffffffffffffffffffffffffffffffffffffffffffffffffffffffff167f23b872dd000000000000000000000000000000000000000000000000000000001790529151600092839290881691610b9991906114b9565b6000604051808303816000865af19150503d8060008114610bd6576040519150601f19603f3d011682016040523d82523d6000602084013e610bdb565b606091505b5091509150818015610c05575080511580610c05575080806020019051810190610c0591906114cb565b610c91576040517f08c379a000000000000000000000000000000000000000000000000000000000815260206004820152603160248201527f5472616e7366657248656c7065723a3a7472616e7366657246726f6d3a20747260448201527f616e7366657246726f6d206661696c65640000000000000000000000000000006064820152608401610144565b505050505050565b60015b8151610ca982600361151c565b101561117e57600080838381518110610cc457610cc4611394565b602002602001015184846002610cda919061151c565b81518110610cea57610cea611394565b602002602001015191509150600084846001610d06919061151c565b81518110610d1657610d16611394565b602002602001015190506000806000808473ffffffffffffffffffffffffffffffffffffffff16630902f1ac6040518163ffffffff1660e01b8152600401606060405180830381865afa158015610d71573d6000803e3d6000fd5b505050506040513d601f19601f82011682018060405250810190610d959190611552565b506dffffffffffffffffffffffffffff1691506dffffffffffffffffffffffffffff16915060008673ffffffffffffffffffffffffffffffffffffffff168873ffffffffffffffffffffffffffffffffffffffff1610610df55781610df7565b825b6040517f70a0823100000000000000000000000000000000000000000000000000000000815273ffffffffffffffffffffffffffffffffffffffff888116600483015291925082918a16906370a0823190602401602060405180830381865afa158015610e68573d6000803e3d6000fd5b505050506040513d601f19601f82011682018060405250810190610e8c9190611470565b610e9691906115a2565b93506000925060029150610ea79050565b604051908082528060200260200182016040528015610ed0578160200160208202803683370190505b5090508581600081518110610ee757610ee7611394565b602002602001019073ffffffffffffffffffffffffffffffffffffffff16908173ffffffffffffffffffffffffffffffffffffffff16815250508481600181518110610f3557610f35611394565b602002602001019073ffffffffffffffffffffffffffffffffffffffff16908173ffffffffffffffffffffffffffffffffffffffff168152505087600081518110610f8257610f82611394565b602002602001015173ffffffffffffffffffffffffffffffffffffffff1663d06ca61f83836040518363ffffffff1660e01b8152600401610fc49291906115e8565b600060405180830381865afa158015610fe1573d6000803e3d6000fd5b505050506040513d6000823e601f3d9081017fffffffffffffffffffffffffffffffffffffffffffffffffffffffffffffffe0168201604052611027919081019061164c565b60018151811061103957611039611394565b6020026020010151925050506000808473ffffffffffffffffffffffffffffffffffffffff168673ffffffffffffffffffffffffffffffffffffffff161061108357826000611087565b6000835b909250905073ffffffffffffffffffffffffffffffffffffffff841663022c0d9f83838b6110b68c600361151c565b815181106110c6576110c6611394565b6020026020010151600067ffffffffffffffff8111156110e8576110e86115b9565b6040519080825280601f01601f191660200182016040528015611112576020820181803683370190505b506040518563ffffffff1660e01b81526004016111329493929190611728565b600060405180830381600087803b15801561114c57600080fd5b505af1158015611160573d6000803e3d6000fd5b50505050505050505050600281611177919061151c565b9050610c9c565b5050565b6040805160008082526020820190925273ffffffffffffffffffffffffffffffffffffffff84169083906040516111b991906114b9565b60006040518083038185875af1925050503d80600081146111f6576040519150601f19603f3d011682016040523d82523d6000602084013e6111fb565b606091505b505090508061128c576040517f08c379a000000000000000000000000000000000000000000000000000000000815260206004820152603460248201527f5472616e7366657248656c7065723a3a736166655472616e736665724554483a60448201527f20455448207472616e73666572206661696c65640000000000000000000000006064820152608401610144565b505050565b73ffffffffffffffffffffffffffffffffffffffff811681146112b357600080fd5b50565b80356112c181611291565b919050565b60008060008060008587036101008112156112e057600080fd5b60a08112156112ee57600080fd5b5085945060a086013567ffffffffffffffff8082111561130d57600080fd5b818801915088601f83011261132157600080fd5b81358181111561133057600080fd5b8960208260051b850101111561134557600080fd5b60208301965080955050505061135d60c087016112b6565b915061136b60e087016112b6565b90509295509295909350565b60006020828403121561138957600080fd5b813561095d81611291565b7f4e487b7100000000000000000000000000000000000000000000000000000000600052603260045260246000fd5b600082357fffffffffffffffffffffffffffffffffffffffffffffffffffffffffffffffc18336030181126113f757600080fd5b9190910192915050565b60008083357fffffffffffffffffffffffffffffffffffffffffffffffffffffffffffffffe184360301811261143657600080fd5b83018035915067ffffffffffffffff82111561145157600080fd5b6020019150600581901b360382131561146957600080fd5b9250929050565b60006020828403121561148257600080fd5b5051919050565b60005b838110156114a457818101518382015260200161148c565b838111156114b3576000848401525b50505050565b600082516113f7818460208701611489565b6000602082840312156114dd57600080fd5b8151801515811461095d57600080fd5b7f4e487b7100000000000000000000000000000000000000000000000000000000600052601160045260246000fd5b6000821982111561152f5761152f6114ed565b500190565b80516dffffffffffffffffffffffffffff811681146112c157600080fd5b60008060006060848603121561156757600080fd5b61157084611534565b925061157e60208501611534565b9150604084015163ffffffff8116811461159757600080fd5b809150509250925092565b6000828210156115b4576115b46114ed565b500390565b7f4e487b7100000000000000000000000000000000000000000000000000000000600052604160045260246000fd5b6000604082018483526020604081850152818551808452606086019150828701935060005b8181101561163f57845173ffffffffffffffffffffffffffffffffffffffff168352938301939183019160010161160d565b5090979650505050505050565b6000602080838503121561165f57600080fd5b825167ffffffffffffffff8082111561167757600080fd5b818501915085601f83011261168b57600080fd5b81518181111561169d5761169d6115b9565b8060051b6040517fffffffffffffffffffffffffffffffffffffffffffffffffffffffffffffffe0603f830116810181811085821117156116e0576116e06115b9565b6040529182528482019250838101850191888311156116fe57600080fd5b938501935b8285101561171c57845184529385019392850192611703565b98975050505050505050565b84815283602082015273ffffffffffffffffffffffffffffffffffffffff83166040820152608060608201526000825180608084015261176f8160a0850160208701611489565b601f017fffffffffffffffffffffffffffffffffffffffffffffffffffffffffffffffe0169190910160a0019594505050505056fea2646970667358221220078ad0b2e61a4d960ea482ed5d6faaae7f83fd672b1586f90f9a812e1ac2508164736f6c634300080d0033",
  "immutableReferences": {},
  "source": "// SPDX-License-Identifier: MIT\n/** @title Aggregator */\n/** @author Zergity */\n\npragma solidity >=0.6.2;\npragma experimental ABIEncoderV2;\n\nimport '@uniswap/lib/contracts/libraries/TransferHelper.sol';\nimport \"./interfaces/IERC20.sol\";\nimport \"./interfaces/IWETH.sol\";\nimport './interfaces/IUniswapV2Router02.sol';\nimport './interfaces/IUniswapV2Factory.sol';\nimport './interfaces/IUniswapV2Pair.sol';\nimport './interfaces/IAggregator.sol';\n\ncontract Aggregator2 is IAggregator {\n    address private constant COIN = 0xEeeeeEeeeEeEeeEeEeEeeEEEeeeeEeeeeeeeEEeE;\n    address private constant WCOIN = 0xbb4CdB9CBd36B01bD1cBaEBF2De08d9173bc095c;\n\n    // accepting COIN\n    receive() external payable {}\n\n    function aggregate(\n        Order   calldata    order,\n        Route[] calldata    routes,\n        address payable     recipient,\n        address             referrer\n    ) external payable returns (uint amountOut, uint gasLeft) {\n    unchecked {\n        // not correct if tokenIn == tokenOut\n        amountOut = _balance(order.tokenOut, recipient);\n\n        if (order.tokenIn == COIN) {\n            require(order.amountIn == msg.value, \"Aggregator: amountIn != msg.value\");\n            IWETH(WCOIN).deposit{value: msg.value}();\n        }\n\n        uint spentAmount;\n\n        for (uint i; i < routes.length; ++i) {\n            if (order.tokenIn == COIN) {\n                TransferHelper.safeTransfer(WCOIN, routes[i].steps[0][2], routes[i].amount);\n            } else {\n                // direct transfer tokenIn from msg.sender\n                TransferHelper.safeTransferFrom(order.tokenIn, msg.sender, routes[i].steps[0][2], routes[i].amount);\n            }\n\n            for (uint j; j < routes[i].steps.length; ++j) {\n                _swapSupportingFeeOnTransferTokens(routes[i].steps[j]);\n            }\n\n            spentAmount += routes[i].amount;\n        }\n\n        require(spentAmount == order.amountIn, \"Aggregator: spentAmount != amountIn\");\n\n        if (order.tokenOut == COIN) {\n            uint balance = IERC20(WCOIN).balanceOf(address(this));\n            IWETH(WCOIN).withdraw(balance);\n            TransferHelper.safeTransferETH(recipient, address(this).balance);\n        }\n\n        { // stack too deep\n            uint balance = _balance(order.tokenOut, recipient);\n            require(balance >= amountOut, 'Aggregator: NEGATIVE_OUTPUT_AMOUNT');\n            amountOut = balance - amountOut;\n            require(amountOut >= order.amountOutMin, 'Aggregator: INSUFFICIENT_OUTPUT_AMOUNT');\n        }\n\n        emit Swapped(\n            msg.sender,\n            order.tokenIn,\n            order.tokenOut,\n            recipient,\n            order.amountIn,\n            spentAmount,\n            amountOut,\n            order.amountOutMin,\n            referrer\n        );\n\n        return (amountOut, gasleft());\n    } }\n\n    // **** SWAP (supporting fee-on-transfer tokens) ****\n    // requires the initial amount to have already been sent to the first pair\n    function _swapSupportingFeeOnTransferTokens(address[] memory path) internal {\n        for (uint i = 1; i+3 < path.length; i += 2) {\n            (address input, address output) = (path[i], path[i+2]);\n            IUniswapV2Pair pair = IUniswapV2Pair(path[i+1]);\n            uint amountOutput;\n            { // scope to avoid stack too deep errors\n                uint amountInput;\n                {\n                    (uint r0, uint r1,) = pair.getReserves();\n                    uint ri = input < output ? r0 : r1;\n                    amountInput = IERC20(input).balanceOf(address(pair)) - ri;\n                }\n                address[] memory tokens = new address[](2);\n                tokens[0] = input;\n                tokens[1] = output;\n                amountOutput = IUniswapV2Router02(path[0]).getAmountsOut(amountInput, tokens)[1];\n            }\n            (uint amount0Out, uint amount1Out) = input < output ? (uint(0), amountOutput) : (amountOutput, uint(0));\n            pair.swap(amount0Out, amount1Out, path[i+3], new bytes(0));\n        }\n    }\n\n    function _balance(address token, address adr) internal view returns (uint) {\n        return token == COIN ? adr.balance : IERC20(token).balanceOf(adr);\n    }\n}",
  "sourcePath": "/home/zergity/src/github.com/ezDeFi/aggregator-contracts/contracts/Aggregator2.sol",
  "compiler": {
    "name": "solc",
    "version": "0.8.13+commit.abaa5c0e.Emscripten.clang"
  },
  "schemaVersion": "3.4.6",
  "updatedAt": "2022-04-09T04:25:01.696Z",
  "devdoc": {
    "kind": "dev",
    "methods": {},
    "version": 1
  },
  "userdoc": {
    "kind": "user",
    "methods": {},
    "version": 1
  }
}